:0300000002005E9D
:03000600020003F2
:03000300020052A6
:20000900754641E547701C854645745AB546067E417F008009AD460DEDFE3395E0FF8E4617
:2000290075470112014A80DB758920758DFA759850D28ED299E547600B3099FD854599C27E
:1C0049009975470012014A80EC75470090000912008B0200310200652222222269
:20006500E4F534F53590005212008B858235E9C0E0E5352430F98781D0E0F9D0D0D083D025
:2000850082D0F0D0E022740FB53406E4B53502800280047582FF2275200074FC2520403429
:2000A500C006C007AF208FF005F07F017E008006EF2FFFEE33FED5F0F7EF5534F523EE551C
:2000C50035F524D007D006E52345246007E52004F52080C6AF208FF005F07F017E0080061D
:2000E500EF2FFFEE33FED5F0F7EF4234EE4235AF200F0F0FEFC454F0FF740F4FF521858159
:2001050022852181AE207F008E23EFC40354F8C523C403C5236523C52354F8C5236523F5D9
:2001250024C082C0837400C0E0C0E0C0E0C0E0C023E8C0E0E5202430F8A681D0E0F88522EB
:200145008185208222C0E0C0F0C082C083C0D0E8C0E0E5352430F8A681D0E0F8AE357F004C
:200165008E828F83A37508048F09120222AE82AF838E35C006C007AF358FF005F07F017E5E
:20018500008006EF2FFFEE33FED5F0F7EF5534F523EE5535F524D007D006E523452460BC81
:2001A500E9C0E0E5352430F98781D0E0F9D0D0D083D082D0F0D0E022E9C0E0E5352430F9D2
:1001C5008781D0E0F9D0D0D083D082D0F0D0E022A2
:2001D500E508450960467A01E50825E0F508E509334012F509E5829508E583950940030AF7
:2001F50080E6C3E50913F509E50813F508C3E5829508F5F0E58395094005F58385F082C39C
:0D021500E50913F509E50813F508DAE12203
:20022200C2D5E58330E70DD2D5E4C39582F582E49583F583E50930E70BE4C39508F508E414
:160242009509F5091201D530D50BE4C39582F582E49583F5832247
:00000001FF
